:020000020000FC
:1000000026C018951895189518951895189518954F
:100010001895189518951895189518951895189578
:10002000189518951895189518951895189502C053
:10003000189518950F930FB70F931F9315B102E002
:10004000012705B91F910F910FBF0F9118950FEF61
:100050000DBF02E00EBFE0E0F1E000270193F330B6
:10006000E9F7E030D9F7EE27FF27EEE1FF27EA9521
:10007000F083E9F70BE400BF00E400937B0005E0A8
:0A00800000937C00219A7894FFCFD2
:00000001FF
