:020000020000FC
:1000000076C01895189518951895189518951895FF
:100010001895189518951895189518951895189578
:10002000189518952EC0189504C04CC018951895B1
:1000300018950F930FB70F938894C794B79488942B
:10004000C794B7948894C794B7948894C794B79486
:100050008894C794B7948894C794B7948894C794A5
:10006000B7948894C794B794E6EBF1E074D00B2D65
:10007000662777D0E4EDF1E06ED00F910FBF0F91BE
:1000800018950F930FB70F930091C600033761F0D7
:10009000023701F008ED0093C1000BEE00937A00E7
:1000A00002E50093C6000AC003E000937A0008E965
:1000B0000093C10003E50093C60000C00F910FBF7D
:1000C0000F9118950F930FB70F930091780010912F
:1000D0007900E00EF11EDA9431F4BE2CCF2CEE2420
:1000E000FF2400E4D02E0F910FBF0F9118950FEF52
:1000F0000DBF02E00EBFE0E0F1E000270193F33016
:10010000E9F7E030D9F7EE27FF27EEE1FF27EA9580
:10011000F083E9F700E00093C50009E10093C40013
:1001200000E00093C00008E90093C10006E00093DE
:10013000C20000E400937C0000E4D02E7894EEE945
:10014000F1E009D0FFCF5091C00055FFFCCF0093E4
:10015000C600299808950591003011F0F4DFFBCF17
:100160000895112744274395222730E1000F111FDE
:10017000221F2A3010F02A5003953A95B9F7205DD6
:100180002F930317130779F7461720F4439500E2DE
:100190000F93FACF0F91D7DF4A95E1F708954144C5
:1001A0004320736F66742066696C746572206465A1
:1001B0006D6F0D0A0000414443206368616E6E65F7
:1001C0006C2066696C74657265642076616C756517
:0801D0003A2000000D0A0000B6
:00000001FF
