:020000020000FC
:100000008EC01895189518951895189518951895E7
:100010001895189518951895189518951895189578
:100020001895189507C0189528C053C018951895AD
:10003000189518950F930FB70F930091C6000033D2
:1000400031F0013331F0023331F003E006C000E05B
:1000500004C001E002C002E000C0009300010F9361
:10006000EAEEF1E091D00F91662794D0E8EFF1E04D
:100070008BD00F910FBF0F9118950F930FB70F9360
:100080001F9310910001103029F0113031F012301F
:1000900039F01AC00091020106C00091030103C0AB
:1000A0000091040100C00F931F93EAEEF1E06CD0C1
:1000B0000F9166276FD0E4E0F2E066D00F916627DB
:1000C00069D0E8E0F2E060D01F910F910FBF0F916F
:1000D00018950F930FB70F93EF93FF931F93009112
:1000E0007C000770102FE2E0F1E0E00F0027F01F26
:1000F0000091780000917900008300917C00087FD6
:1001000013951770012B00937C000BEC00937A0081
:100110001F91FF91EF910F910FBF0F9118950FEF66
:100120000DBF02E00EBFE0E0F1E000270193F330E5
:10013000E9F7E030D9F7EE27FF27EEE1FF27EA9550
:10014000F083E9F700E00093C50009E10093C400E3
:1001500000E00093C00008ED0093C10006E00093AA
:10016000C20000E600937C007894E0EDF1E00CD052
:100170000BEC00937A00FFCF5091C00055FFFCCFED
:100180000093C600299808950591003011F0F4DF1E
:10019000FBCF0895112744274395222730E1000F14
:1001A000111F221F2A3010F02A5003953A95B9F7F3
:1001B000205D2F930317130779F7461720F4439513
:1001C00000E20F93FACF0F91D7DF4A95E1F7089538
:1001D000414443206D75786564206368616E6E6587
:1001E0006C2064656D6F0D0A000041444320636814
:1001F000616E6E656C2023002073656C65637465A9
:0C020000640D0A003A2000000D0A000006
:00000001FF
