:020000020000FC
:1000000074C0189518951895189518951895189501
:100010001895189518951895189518951895189578
:100020001895189507C00FC02CC0189518951895ED
:10003000189518950F930FB70F930091C6000F9165
:100040000FBF0F911895299A0F930FB70F93EF9346
:10005000FF93E0910001F09101010591003069F0FA
:100060000093C600E0930001F0930101FF91EF912E
:100070000F910FBF0F912998189508ED0093C100BB
:10008000F5CF1895454550524F4D207772697465EC
:100090002074657374730A0D0000577269746520CB
:1000A0003078343220746F20454550524F4D0A0D40
:1000B00000005265616420307834322066726F6DC2
:1000C00020454550524F4D0A0D0052656164203065
:1000D0007834322066726F6D20454550524F4D2066
:1000E0006661696C65640A0D00000FEF0DBF02E0E8
:1000F0000EBFE0E0F1E000270193F330E9F7E030D4
:10010000D9F7EE27FF27EEE1FF27EA95F083E9F71D
:10011000219A229A299A2A9A00E00093C50009E1BF
:100120000093C40000E00093C00008ED0093C100FC
:1001300006E00093C200789429982A9805E441D0FB
:1001400008E53FD004E810E000930001109301019E
:1001500008EF0093C1001091C10015FDFCCF0AE922
:1001600010E0009300011093010108EF0093C1001B
:100170001091C10015FDFCCF00E010E052E433D037
:1001800002EB10E0009300011093010108EF0093CF
:10019000C1001091C10015FDFCCF00E010E050E05F
:1001A0002CD0523469F00AEC10E000930001109357
:1001B000010108EF0093C1001091C10015FDFCCFB3
:1001C000FFCF299A1091C00015FFFBCF0093C60006
:1001D000299808952A9A1091C00017FFFBCF00912B
:1001E000C6002A980895F999FECFF89401BD12BD72
:1001F00050BDFA9AF99A78940895F999FECF01BD05
:0802000012BDF89A50B50895F3
:00000001FF
