:020000020000FC
:1000000019C018951895189518951895189518955C
:100010001895189518951895189518951895189578
:100020001895189518951895189518951895189568
:10003000189518950FEF0DBF02E00EBFE0E0F1E05C
:1000400000270193F330E9F7E030D9F7EE27FF27D7
:10005000EEE1FF27EA95F083E9F700E00093C500A1
:1000600009E10093C40000E00093C00008ED009394
:10007000C10006E00093C200EEE4F1E01DD0E0E034
:10008000F1E01AD0EEE4F1E017D0EEE2F1E014D0A6
:1000900060D0EEE4F1E010D0E4E4F1E00DD068D0FF
:1000A000EEE4F1E009D0FFCF5091C00055FFFCCF46
:1000B0000093C600299808950591003011F0F4DFEF
:1000C000FBCF0895112744274395222730E1000FE5
:1000D000111F221F2A3010F02A5003953A95B9F7C4
:1000E000205D2F930317130779F7461720F44395E4
:1000F00000E20F93FACF0F91D7DF4A95E1F7089509
:10010000446973706C61792065787465726E616C96
:1001100020656570726F6D207772697465732062F7
:10012000792075736572204953500D0A000053748D
:1001300072696E672066726F6D20656570726F6D93
:100140003A200000436F756E7465723A20000D0A04
:10015000000002E010E029D00F931F93052F252FF8
:10016000A3DF1F910F910F5F1F4F2030A1F708955C
:1001700000E010E01AD0852F039517D0952F082F97
:10018000192FA1DF019600E010E0582F04D003954D
:10019000592F01D00895F999FECFF89401BD12BDF1
:1001A00050BDFA9AF99A78940895F999FECF01BD55
:0801B00012BDF89A50B5089544
:00000001FF
