:020000020000FC
:1000000026C018C018951895189518951895189524
:100010001895189518951895189518951895189578
:100020001895189518951895189518951895189568
:10003000189518950F930FB70F931F9308B118E0F9
:10004000102718B91F910F910FBF0F9118950FEF3F
:100050000DBF02E00EBFE0E0F1E000270193F330B6
:10006000E9F7E030D9F7EE27FF27EEE1FF27EA9521
:10007000F083E9F743983B9A5A9A02E005BF01E002
:060080000DBB7894FFCFD8
:00000001FF
