:020000020000FC
:1000000019C018951895189518951895189518955C
:100010001895189518951895189518951895189578
:100020001895189518951895189518951895189568
:10003000189518950FEF0DBF02E00EBFE0E0F1E05C
:1000400000270193F330E9F7E030D9F7EE27FF27D7
:10005000EEE1FF27EA95F083E9F73D9A3C9A439A4F
:100060003B980027302F402F502F339B10C0459ACC
:10007000303031F4403021F408B110E1102718B9C4
:10008000000001E010E0300F411F511FEECF4598F6
:10009000EFCFFFCF0FEF1FEF27E0015010402040C0
:0400A000E0F70895E8
:00000001FF
