:020000020000FC
:1000000019C018951895189518951895189518955C
:100010001895189518951895189518951895189578
:100020001895189518951895189518951895189568
:10003000189518950FEF0DBF02E00EBFE0E0F1E05C
:1000400000270193F330E9F7E030D9F7EE27FF27D7
:10005000EEE1FF27EA95F083E9F73D9A3C9A439A4F
:100060003B98339B19C0459A009100011091010102
:10007000003031F4103021F408B110E1102718B924
:10008000000000910001109101010F5F1F4F0093CC
:10009000000110930101E5CF4598E6CFFFCF0FEFA8
:0E00A0001FEF27E0015010402040E0F70895C8
:00000001FF
