:020000020000FC
:1000000042C0189518951895189518951895189533
:100010001895189518951895189518951895189578
:100020001895189518951895189504C01895189551
:10003000189518950F930FB70F93EF93FF931F9396
:1000400000917C000770102FE0E0F1E0E00F002746
:10005000F01F0091780000917900008300917C00EE
:10006000087F1395163008F011271770012B0093A5
:100070007C000BEC00937A001F91FF91EF910F91A0
:100080000FBF0F9118950FEF0DBF02E00EBFE0E01C
:10009000F1E000270193F330E9F7E030D9F7EEE122
:1000A000FF27EA95F083E9F700E00093C50009E136
:1000B0000093C40000E00093C00008ED0093C1006D
:1000C00006E00093C20000E600937C0078940BECFD
:0600D00000937A00FFCF4F
:00000001FF
