:020000020000FC
:1000000062C0189518951895189518951895189513
:100010001895189518951895189518951895189578
:1000200018951895189518952EC004C01895189510
:10003000189518950F930FB70F93EF93FF931F9396
:1000400000917C000770102FE0E0F1E0E00F002746
:10005000F01F0091780000917900008300917C00EE
:10006000087F1395163008F011271770012B0093A5
:100070007C000BEC00937A001F91FF91EF910F91A0
:100080000FBF0F9118950F930FB70F93EF93FF9337
:10009000E0E9F1E04AD0E0E0F1E000814CD0E53069
:1000A0004CF4E395FF93EF93E6EAF1E03ED0EF9155
:1000B000FF91F3CFEAEAF1E038D0FF91EF910F9191
:1000C0000FBF0F9118950FEF0DBF02E00EBFE0E0DC
:1000D000F1E000270193F330E9F7E030D9F7EEE1E2
:1000E000FF27EA95F083E9F700E00093C50009E1F6
:1000F0000093C40000E00093C00008ED0093C1002D
:1001000006E00093C20000E600937C007894E2E7EA
:10011000F1E00BD00BEC00937A00FFCF5091C000C0
:1001200055FFFCCF0093C60008950591003011F0F3
:10013000F5DFFBCF0895112744274395222730E1AF
:10014000000F111F221F2A3010F02A5003953A95F4
:10015000B9F7205D2F930317130779F7461720F49B
:10016000439500E20F93FACF0F91D8DF4A95E1F75C
:1001700008954C6967687420466F6C6C6F77657280
:100180002053656E736F72732064656D6F0D0A0086
:10019000414443206368616E6E656C732076616CC8
:0E01A0007565733A20002C2000000D0A000047
:00000001FF
