:020000020000FC
:10000000B2C01895189518951895189518951895C3
:100010001895189518951895189518951895189578
:10002000189518951895189557C004C018951895E7
:10003000189518950F930FB70F93EF93FF931F9396
:1000400000917C000770102FE0E0F1E0E00F002746
:10005000F01F0091780000917900008300917C00EE
:10006000087F1395163010F011270ED01770012B52
:1000700000937C000BEC00937A001F91FF91EF91AD
:100080000F910FBF0F911895CF93DF931F930F938D
:10009000C0E0D1E0E6E0F1E018810FEF011B008342
:1000A000C5301CF4C395E395F7CF2F9300E010E023
:1000B000E6E02081201718F0022F1E2F1650EB309B
:1000C00014F4E395F6CFECE0F1E010832F910F915B
:1000D0001F91DF91CF9108950F930FB70F93EF9377
:1000E000FF93E4E3F2E071D0E6E0F1E0008173D049
:1000F000EB304CF4E395FF93EF93E0E5F2E065D04D
:10010000EF91FF91F3CFE0E5F2E05FD0ECE0F1E0BA
:100110000081033061F0003071F0053081F0013072
:1001200091F00430A1F0EEE6F2E04FD013C0E8E524
:10013000F2E04BD00FC0ECE7F2E047D00BC0E4E8B0
:10014000F2E043D007C0ECE8F2E03FD003C0E0E6C5
:10015000F2E03BD0E4E5F2E038D0FF91EF910F916F
:100160000FBF0F9118950FEF0DBF02E00EBFE0E03B
:10017000F1E000270193F330E9F7E030D9F7EEE141
:10018000FF27EA95F083E9F700E00093C50009E155
:100190000093C40000E00093C00008ED0093C1008C
:1001A00006E00093C20000E600937C007894E2E150
:1001B000F2E00BD00BEC00937A00FFCF5091C0001F
:1001C00055FFFCCF0093C60008950591003011F053
:1001D000F5DFFBCF0895112744274395222730E10F
:1001E000000F111F221F2A3010F02A5003953A9554
:1001F000B9F7205D2F930317130779F7461720F4FB
:10020000439500E20F93FACF0F91D8DF4A95E1F7BB
:1002100008954C6967687420466F6C6C6F776572DF
:10022000204E617669676174696F6E2064656D6FD9
:100230000D0A000070726F636573736564206368F4
:10024000616E6E656C732076616C7565733A200023
:100250002C2000000D0A000066726F6E740D0A00FB
:1002600066726F6E74206C6566740D0A00006672AB
:100270006F6E742072696768740D0A006261636B47
:100280000D0A00006C6566740D0A000072696768EB
:04029000740D0A00DF
:00000001FF
