:020000020000FC
:100000002AC018951895189518951895189518954B
:100010001895189518951895189518951895189578
:100020001895189507C0189518951895189518954E
:10003000189518950F930FB70F931F930091C60053
:100040000A3009F003C014E71093C6001F910F9106
:100050000FBF0F9118950FEF0DBF02E00EBF02E327
:100060000093C6000CD00093C60009D00093C600D0
:1000700006D0789410E81093C100F2CFFFCF14E1BE
:080080001A950000E9F708954C
:00000001FF
