:020000020000FC
:100000002CC0189518951895189518951895189549
:100010001895189518951895189518951895189578
:1000200009C018951895189518951895189518954C
:10003000189518950F930FB70F931F930091020116
:10004000109103010F5F1F4F0093020110930301F2
:100050001F910F910FBF0F9118950FEF0DBF02E089
:100060000EBFE0E0F1E000270193F330E9F7E03064
:10007000D9F7EE27FF27EEE1FF27EA95F083E9F7AE
:100080003D9A3C9A439A3B9800916E000160009320
:100090006E0001E005BD7894339B21C0459A009124
:1000A000020110910301003071F4103161F408B1C4
:1000B00010E1102718B90027F89406BD009302013B
:1000C0000093030178940000009100011091010158
:1000D0000F5F1F4F0093000110930101DDCF459882
:0400E000DECFFFCFA1
:00000001FF
