:020000020000FC
:100000002CC0189518951895189518951895189549
:100010001895189518951895189518951895189578
:1000200009C018951895189518951895189518954C
:10003000189518950F930FB70F931F930091020116
:10004000109103010F5F1F4F0093020110930301F2
:100050001F910F910FBF0F9118950FEF0DBF02E089
:100060000EBFE0E0F1E000270193F330E9F7E03064
:10007000D9F7EE27FF27EEE1FF27EA95F083E9F7AE
:10008000239A229A439A3B9800916E000160009354
:100090006E0001E005BD01EA0093800009E00093D5
:1000A000810000E00093890005E50093880000E0EE
:1000B00000938B0000E800938A007894009102017D
:1000C000109103010030F1F41130E1F4F894009143
:1000D000880010918900039510938900009388008F
:1000E00000918A0010918B000A9510938B00009369
:1000F0008A0078940027F89406BD009302010093CB
:1001000003017894000000910001109101010F5F3C
:0E0110001F4F0093000110930101D0CFFFCFCD
:00000001FF
