:020000020000FC
:1000000019C018951895189518951895189518955C
:100010001895189518951895189518951895189578
:100020001895189518951895189518951895189568
:10003000189518950FEF0DBF02E00EBF011758F08D
:1000400051F048F0021739F030F0011720F40000A9
:100050000000000003C000000000000000000000DD
:100060001091BC0006E010271093BC00222719E075
:100070000AEA88941A9521F0001FE0F72395FACF39
:040080000000FFCFAE
:00000001FF
