:020000020000FC
:1000000019C018951895189518951895189518955C
:100010001895189518951895189518951895189578
:100020001895189518951895189518951895189568
:10003000189518950FEF0DBF02E00EBFE0E0F1E05C
:1000400000270193F330E9F7E030D9F7EE27FF27D7
:10005000EEE1FF27EA95F083E9F700E00093C500A1
:1000600009E10093C40000E00093C00008ED009394
:10007000C10006E00093C200E6EAF1E035D0E4E218
:10008000F1E032D0E6EAF1E02FD0EAE3F1E02CD063
:1000900002E43CD0E6EAF1E027D0E2E5F1E024D04A
:1000A00004E315E22FD0E6EAF1E01ED0EAE6F1E043
:1000B0001BD002E114E326E521D0E6EAF1E014D0FA
:1000C000E6E8F1E011D007E815E623E431E212D0CA
:1000D000E6EAF1E009D0FFCF5091C00055FFFCCF18
:1000E0000093C600299808950591003011F0F4DFBF
:1000F000FBCF08950F93032F09D00F910F93022F79
:1001000005D00F910F93012F01D00F91029501D0CF
:1001100002950F930F700A3008F0095F005DDCDF75
:100120000F910895446973706C617920666F726DE8
:1001300061742064656D6F0D0A00446973706C61B1
:10014000792062797465206173206865783A20307F
:100150007800446973706C617920776F72642061F4
:1001600073206865783A20307800446973706C6158
:100170007920332062797465732061732068657813
:100180003A2030780000446973706C617920646FA4
:1001900075626C6520776F72642061732068657882
:0A01A0003A20307800000D0A00003C
:00000001FF
