:020000020000FC
:100000004DC0189518951895189518951895189528
:100010001895189518951895189518951895189578
:100020001895189507C00FC02CC0189518951895ED
:10003000189518950F930FB70F930091C6000F9165
:100040000FBF0F911895299A0F930FB70F93EF9346
:10005000FF93E0910001F09101010591003069F0FA
:100060000093C600E0930001F0930101FF91EF912E
:100070000F910FBF0F912998189508ED0093C100BB
:10008000F5CF189548656C6C6F20496E7465727277
:100090007570742052657175657374000FEF0DBF34
:1000A00002E00EBFE0E0F1E000270193F330E9F752
:1000B000E030D9F7EE27FF27EEE1FF27EA95F0833E
:1000C000E9F7219A229A299A2A9A00E00093C5001A
:1000D00009E10093C40000E00093C00008ED009324
:1000E000C10006E00093C200789429982A9805E49C
:1000F0000CD008E50AD014E820E01093000120930A
:10010000010108EF0093C100FFCF299A1091C000B0
:1001100015FFFBCF0093C600299808952A9A1091E5
:0E012000C00017FFFBCF0091C6002A9808957B
:00000001FF
