:020000020000FC
:1000000019C018951895189518951895189518955C
:100010001895189518951895189518951895189578
:100020001895189518951895189518951895189568
:10003000189518950FEF0DBF02E00EBFE0E0F1E05C
:1000400000270193F330E9F7E030D9F7EE27FF27D7
:10005000EEE1FF27EA95F083E9F700E00093C500A1
:1000600009E10093C40000E00093C00008ED009394
:10007000C10006E00093C200E4E3F2E048D0E6E805
:10008000F1E045D0E4E3F2E042D0ECE9F1E03FD02A
:1000900002E44FD0E4E3F2E03AD0E4EBF1E037D011
:1000A00002E4662752D0E4E3F2E031D0EAECF1E07A
:1000B0002ED004E315E239D0E4E3F2E028D0E2EEFA
:1000C000F1E025D004E315E2662740D0E4E3F2E056
:1000D0001ED0E8EFF1E01BD002E114E326E521D0C9
:1000E000E4E3F2E014D0E4E1F2E011D007E815E631
:1000F00023E431E212D0E4E3F2E009D0FFCF5091E3
:10010000C00055FFFCCF0093C600299808950591C3
:10011000003011F0F4DFFBCF08950F93032F09D0C7
:100120000F910F93022F05D00F910F93012F01D044
:100130000F91029501D002950F930F700A3008F0CD
:10014000095F005DDCDF0F91089511274427439577
:10015000222730E1000F111F221F2A3010F02A50F1
:1001600003953A95B9F7205D2F930317130779F795
:10017000461720F4439500E20F93FACF0F91BFDFAB
:100180004A95E1F70895446973706C617920666F50
:10019000726D61742064656D6F0D0A00446973703F
:1001A0006C61792062797465206173206865783AA2
:1001B00020307800446973706C61792062797465CD
:1001C000206173206465633A2000446973706C6138
:1001D0007920776F7264206173206865783A2030E7
:1001E0007800446973706C617920776F7264206164
:1001F00073206465633A2000446973706C617920F0
:1002000033206279746573206173206865783A20C1
:1002100030780000446973706C617920646F756296
:100220006C6520776F7264206173206865783A206E
:08023000307800000D0A000007
:00000001FF
