:020000020000FC
:1000000019C018951895189518951895189518955C
:100010001895189518951895189518951895189578
:100020001895189518951895189518951895189568
:10003000189518950FEF0DBF02E00EBFE0E0F1E05C
:1000400000270193F330E9F7E030D9F7EE27FF27D7
:10005000EEE1FF27EA95F083E9F7219A229A299A9F
:100060002A9A00E00093C50009E10093C40000E073
:100070000093C00008E10093C10006E00093C200B5
:1000800029982A9805E407D008E505D00DD00395F6
:1000900002D0FCCFFFCF299A1091C00015FFFBCFF3
:1000A0000093C600299808952A9A1091C00017FF5E
:0A00B000FBCF0091C6002A980895C6
:00000001FF
